S315100000004849535745444744010100031000000076
S315100000100001D8BC10000020000000000000000005
S31510000020004800474111001000F002F800F06FF888
S315100000300AA090E8000C82448344AAF10107DA452D
S3151000004001D100F064F8AFF2090EBAE80F0013F010
S31510000050010F18BFFB1A43F0010318475CD40100C7
S315100000607CD401000A444FF0000C10F8013B13F049
S31510000070070408BF10F8014B1D1108BF10F8015BEB
S31510000080641E05D010F8016B641E01F8016BF9D1DE
S3151000009013F0080F1EBF10F8014BAD1C0C1B09D135
S315100000A06D1E58BF01F801CBFAD505E014F8016BA7
S315100000B001F8016B6D1EF9D59142D6D37047000039
S315100000C00023002400250026103A28BF78C1FBD84B
S315100000D0520728BF30C148BF0B607047642904F02F
S315100000E06984782904F0CD84002070471FB59DE8F7
S315100000F0030004F071FF05F037F80400002000211A
S3151000010018F058FF401C60601FBD10B510BD05F0FB
S3151000011055F81146FFF7EAFF11F0CEFA05F073F81D
S3151000012003B4FFF7F2FF03BC05F014F8000000005B
S3151000013000000000000000000000000000000000A9
S315100001407B2266697865645F6B6579223A22383955
S315100001503537443037323544383445333442222C1F
S31510000160227273615F6B65795F62697473223A39C3
S3151000017036302C2273797374656D5F6461746122F5
S315100001803A22222C22757365725F64617461223A79
S3151000019022222C226465766963655F6964223A229D
S315100001A037343230363333324141383735383141CE
S315100001B04530354541394539373644344439444557
S315100001C0222C22636F64655F6964223A22334343AB
S315100001D04335303942453338333637453142323775
S315100001E033433039423741373844383145222C228F
S315100001F073797374656D5F6B6579223A2243433365
S3151000020032444641463639414143373435222C2251
S315100002106672616D5F6B6579223A224641333839D1
S315100002204239313032413431323343222C22666C1A
S315100002306173685F6B6579223A2231303842363401
S3151000024037303339303435433939222C226E7672B1
S31510000250616D5F6B6579223A2243353834414536F4
S31510000260443239464638433241222C227273615F3A
S31510000270707269766174655F6B6579223A224330D4
S3151000028030333030303046324335353745324131F0
S3151000029036353441433746433232423939323336B2
S315100002A035463436344246443135413041303530A6
S315100002B03034444633423342304333374336423682
S315100002C0383633424330394239433746333735347B
S315100002D04137374643334538334634324146424533
S315100002E03836313930393146343532434645393965
S315100002F0374131413233333042464539353638414C
S315100003003834453037423733433339423238444430
S315100003104537314138344241363939413344353025
S315100003204431303938414236433334423834384414
S315100003303341453542324433334633343930453709
S31510000340413744333738343137423038373236381C
S3151000035044383743344236383837433934353943DD
S3151000036033313137323746383042344445354246D8
S31510000370394432343233303030303030303030303F
S315100003803030303030303030303030303030303057
S315100003903030303030303030303030303030303047
S315100003A03030303030303030303030303030303037
S315100003B03030303030303030303030303030303027
S315100003C03030303030303030303030303030303017
S315100003D03030303030303030303030303030303007
S315100003E030303030303030303030303030303030F7
S315100003F030303030303030303030303030303030E7
S3151000040030303030303030303030303030303030D6
S3151000041030303030303030303030303030303030C6
S3151000042030303030303030303030303030303030B6
S3151000043030303030303030303030303030303030A6
S315100004403030303030303030303030303030303096
S315100004503030303030303030303030303030303086
S315100004603031303030313134434639394633313119
S3151000047038364346354334393545453841443831A5
S315100004804646423444344641433330394442463476
S315100004903430313641414342324230364634464694
S315100004A04443384445454241453833353737393664
S315100004B043383244303941433335313031303634B4
S315100004C04232423631454234313138383033453391
S315100004D034303336353136314632373139433130AF
S315100004E0443132373343364337363034383241307D
S315100004F03138454235313241363142414438423243
S315100005004342383846363345374436443137423518
S315100005103844334336353333423635464332333532
S315100005204234393041313835394644413433364511
S315100005303937423042394232434241303131423406
S3151000054041324532383730383742433844334442E3
S3151000055036413433463146433531333834304136FB
S3151000056045414537464534334341363138363036C2
S3151000057041393841464131433531313431364446BB
S3151000058030333446423634443136343239384238D0
S315100005904531464136324245444232324537374379
S315100005A0303144344136464637384146393346426F
S315100005B037343241314243303538323736323639B4
S315100005C03146434343463537464139303935463649
S315100005D03530373431453846444234433644363064
S315100005E03731423030463444373438423138413965
S315100005F0334245343343453942374642393235382A
S31510000600353739353938304332413934373831385E
S31510000610343443413839303336323046313937394C
S315100006204431393136413431384236434641364603
S3151000063041343742303744424534364435334431F9
S3151000064042363142443739333045454637463537D9
S3151000065030394630394631343739424632463733E7
S3151000066037303942384342434236353043343237D5
S3151000067043344631344641413443343031323644C2
S3151000068032373630354345463241314638344435B3
S3151000069039344537393135314232443037414141A9
S315100006A038333031304244444136343338363242AE
S315100006B030393141433046413631313241353134AA
S315100006C03938393539443138394135354331414670
S315100006D03936443230394635383831313339373690
S315100006E04144333336303834384138354436414551
S315100006F0444336334644444143363934423339361B
S31510000700313345413742394137344430394536382B
S315100007104239343535373835333338423631343556
S31510000720383439333635304344363034454534352C
S315100007303532444346314532323545384334363204
S3151000074043413231463938363339343941444531EB
S3151000075042364631324230433931433346374239D5
S3151000076038343834333730443845444641454539B2
S3151000077031323137353146374245413637353238E1
S3151000078035383334383239413045313743433434D0
S315100007904144464233324242423244384132373281
S315100007A03338303039343541323544374330222CE2
S315100007B0227273615F7075626C69635F6B65792213
S315100007C03A224330303330303030463243353537C5
S315100007D04532413136353441433746433232423958
S315100007E03932333635463436344246443135413063
S315100007F04130353030344446334233423043333758
S315100008004336423638363342433039423943374617
S315100008103337353441373746433345383346343228
S31510000820414642453836313930393146343532430E
S3151000083046453939374131413233333042464539ED
S3151000084035363841383445303742373343333942F9
S3151000085032384444453731413834424136393941CA
S3151000086033443530443130393841423643333442DB
S3151000087038343844334145354232443333463334C1
S3151000088039304537413744333738343137423038C9
S3151000089037323638443837433442363838374339A6
S315100008A034353943333131373237463830423444B0
S315100008B045354246394432343233303030303030B8
S315100008C03030303030303030303030303030303012
S315100008D03030303030303030303030303030303002
S315100008E030303030303030303030303030303030F2
S315100008F030303030303030303030303030303030E2
S3151000090030303030303030303030303030303030D1
S3151000091030303030303030303030303030303030C1
S3151000092030303030303030303030303030303030B1
S3151000093030303030303030303030303030303030A1
S315100009403030303030303030303030303030303091
S315100009503030303030303030303030303030303081
S315100009603030303030303030303030303030303071
S315100009703030303030303030303030303030303061
S315100009803030303030303030303030303030303051
S315100009903030303030303030303030303030303041
S315100009A030303030303130303031227D00000000B0
S315100009B00000000000000000000000000000000021
S315100009C00000000000000000000000000000000011
S315100009D00000000000000000000000000000000001
S315100009E000000000000000000000000000000000F1
S3151000114072B6DFF830D00C4B0C4818600C480047CC
S315100011500C480047FEE7FEE7FEE7FEE7FEE7FEE780
S31510001160FEE7FEE7FEE7FEE707480849084A094B8F
S31510001170704700002868012008ED00E000040020F8
S31510001180511100102900001028C8002028680120DD
S31510001190284801202848012010B54E4A51064860BB
S315100011A000F000433BB900BF4B6803401BB1131E50
S315100011B0A2F10102F8D110BD4FF080410122824008
S315100011C04A6070474FF0804182018A6070474FF045
S315100011D080418A68C2F382120270704730B50246A7
S315100011E03D4881073D4BD3F8004144F00104C3F854
S315100011F00041072A02DD38480B3821E00C6944F01B
S3151000120001040C6100BF0C6904F00304032CFAD12D
S315100012104C6944F001044C6100BF4C6904F00304AE
S31510001220032CFAD18C684FF4007545EA82152C43CD
S315100012308C6000BF8C6804F40054002CFAD0002097
S3151000124030BD10B50146244A11B9234A0A3A10E0B6
S3151000125000204FF080439C68C4F38210072805D8FD
S315100012601F4C246804410C60002201E01A4A093A16
S3151000127000BF104610BD10B504462046FFF7E1FF2B
S3151000128010BD30B50446144D2046FFF7F4FF054651
S3151000129015B9206840082060284630BD00B54FF0CB
S315100012A00040FFF779FF00BD4FF08040016841F024
S315100012B01001016070474FF08040016821F0100165
S315100012C0016070474FF08040016821F00101016014
S315100012D070470000A08601000D00007000A00240BB
S315100012E0F4C1011010B5FF224FF40071FB4803F052
S315100012F0BAFD10BD10B5FF224FF40071F74803F088
S31510001300B2FD10BDF64800BF8168F64A11400029AB
S31510001310FAD1F5490164F5490164F549016400BF44
S315100013208168F04A11400029FAD17047EC4800BF95
S315100013308168EC4A11400029FAD1016400BF816826
S31510001340E84A11400029FAD1704730B502460B46DB
S31510001350E848E34900244C6200BF8C68E14D2C40FC
S31510001360002CFAD1E44C8C601C680C630A608C6803
S3151000137044F001048C6000BF8C68DA4DAD1F2C4020
S31510001380002CF9D14C621C681568AC4201D0DB48C0
S3151000139000E000208C6824F070448C6030BD02465A
S315100013A013680B6070472DE9F04102460D46D1488F
S315100013B0540A640202EB050C4FEA5C264FEA4626F5
S315100013C0570A7F02C6494FF0000CC1F824C000BF6F
S315100013D0D1F808C0DFF80C830CEA080CBCF1000F3A
S315100013E0F6D1DFF81CC3C1F808C014E00C60D1F8C0
S315100013F008C04CF0040CC1F808C000BFD1F808C0F2
S31510001400DFF8E082A8F103080CEA080CBCF1000F23
S31510001410F4D104F50074B442E8D3D1F808C0DFF86B
S31510001420E4820CEA080CC1F808C0002308E057F85B
S3151000143023C0BCF1FF3F02D0B048401C04E05B1C47
S31510001440802BF4D3002000BFBDE8F081A948A44941
S3151000145000224A6200BF8A68A24B1A40002AFAD1BB
S31510001460A94A8A604FF080520A608A6842F00202E6
S315100014708A6000BF8A689B4B5B1F1A40002AF9D10D
S315100014808A68A04B1A408A60002070472DE9F84FF1
S3151000149006460F461446DFF85C82B14600200090DF
S315100014A0A246BB460AF0030020B1DFF85082A8F12D
S315100014B0060818E04FEA9A00009000250DE05946FC
S315100014C04846FFF742FF8046B8F1000F00D00AE009
S315100014D009F104090BF1040B6D1C00988542EED33B
S315100014E04FF0000800BF4046BDE8F88F2DE9F041E7
S315100014F004460D4616467F4F15B97E4F0A3F0CE03F
S31510001500A0198249884202D97C4F7F1E05E03246D7
S315100015102146284603F030FC00273846BDE8F08106
S315100015202DE9F84F05460F461446DFF8C881A24646
S31510001530B9464FF0000B002627B9DFF8B881A8F19D
S315100015400A0844E005F0030020B1DFF8B081A8F1E5
S3151000155005083CE028196D49884204D9DFF89C81BA
S31510001560A8F1010833E0281920F0030B2819A0EB85
S315100015700B0600200090042E04D9DFF87881A8F11C
S31510001580070824E0A4EB060A524649462846FFF708
S315100015907DFF8046B8F1000F00D018E0D144AEB1FF
S315100015A0C6F1040A042269465846FFF79FFF804693
S315100015B0B8F1000F0AD132464946684603F0DCFB03
S315100015C0042269465846FFF761FF804600BF404631
S315100015D0BDE8F88F2DE9F84F0446884600200090A4
S315100015E0444D002682468346002704EB08004749EF
S315100015F0884202D9414D6D1E9DE004F0030010B1E2
S315100016003E4D6D1F97E0C4F30807660A76021FB3B6
S31510001610FF224FF40071314803F025FCA4EB060BB2
S315100016205A462E493046FFF761FF054605B182E05E
S315100016304FF400713046FFF7B6FE054605B17AE065
S315100016404FF4007225493046FFF720FF054605B1D5
S3151000165071E00120009001E00020009004EB0800EA
S31510001660C0F3080704EB08004FEA502A4FEA4A2A4B
S31510001670BAEB060023D017B3FF224FF400711748B8
S3151000168003F0F1FBC7F5007B144AD11904EB0800EF
S315100016905A46FFF72BFF054605B14CE04FF4007193
S315100016A05046FFF780FE054605B144E04FF4007240
S315100016B00A495046FFF7EAFE054605B13BE0AAEB9C
S315100016C006004FEA502BBBF1000F01D14FF0010B72
S315100016D0009801281CD106F500771AE0A0C2002058
S315100016E00090024007000001A35C7F3A204FE3A15F
S315100016F0C1B208960D000070100000200800877017
S3151000170000550020FF00FF0F00AA0020000008105F
S3151000171037464FF000090BE04FF400713846FFF7DB
S3151000172042FE054605B106E007F5007709F1010905
S31510001730D945F1D300BF2846BDE8F88F2DE9F0430F
S3151000174006460C4617461D46DFF82C814FF0000959
S3151000175027B9DFF82481A8F10A0834E004F0030061
S3151000176010B1DFF818812EE005F0070020B1DFF880
S315100017700C81A8F1010826E0012E05D140488442CB
S3151000178002D3DFF800910BE02EB93D48844202D215
S31510001790DFF8F49004E0DFF8E080A8F10B0812E01F
S315100017A06019484504D9DFF8D48008F1040809E027
S315100017B0FFF7A8FD2A4639462046FFF767FE804602
S315100017C0FFF7B4FD00BF4046BDE8F0832DE9F047B2
S315100017D005460C4617461E46DFF89C804FF000095A
S315100017E027B9DFF89480A8F10A0842E02748844216
S315100017F003D3A0192449884205D925B9DFF8788082
S31510001800A8F1090835E01E48844203D3A0191D49E2
S31510001810884206D9012D04D1DFF85C80A8F10908A9
S3151000182027E0012D05D11648844202D3DFF85490E3
S315100018300BE02DB91248844202D2DFF84C9004E036
S31510001840DFF83480A8F10B0813E0A019484504D935
S31510001850DFF8288008F104080AE0FFF753FD324646
S315100018602146384603F088FAFFF760FD4FF000086E
S3151000187000BF4046BDE8F0870D000070030087707A
S31510001880001010100014101000041010000010109A
S3151000189070B50B464FF0E021D1F8085D3DB1D1F897
S315100018A0084D42F0010600F1100544F8256001F5D7
S315100018B080652B5470BD10B54FF0E021D1F8083D6E
S315100018C043B1D1F8082D254B43F0010400F1100364
S315100018D042F8234010BD10B54FF0E021402808D241
S315100018E000F01F0301229A40440901F5807343F862
S315100018F0242010BD10B54FF0E021402808D200F08A
S315100019001F0301229A40440901F5C07343F82420AD
S3151000191010BD10B54FF0E021402808D200F01F038B
S3151000192001229A40440901F5207343F8242010BD82
S31510001930F0B504460D461646094F402C02D9084FFD
S315100019400B3F08E0324629462046FFF7A1FF204606
S31510001950FFF7C1FF00273846F0BD000067110010E1
S315100019600D0000700FB430B50446F948F94B53F822
S315100019703420116901F080030BB1F7482FE09DF870
S315100019801D30032B06D1069D049BAB4202D2F048B4
S31510001990001F24E0049B5360059B13609DF81D30C7
S315100019A0032B01D1069B936021F0070121F0400122
S315100019B021F49C719DF81D3019439DF81C3003F0DD
S315100019C0070341EAC3019DF81C3003F0080341EAFE
S315100019D003219DF81E3041EA83111161002030BCAD
S315100019E05DF814FB2DE9F04788B006460C46DFF883
S315100019F060834FF0000A4FF08049D648001F0078E8
S31510001A00B8B9D648D349091F4860D549D148001FEF
S31510001A10C160D4494161D449C161D4494162D449B4
S31510001A20C162D4494163D449C1630120C949091F20
S31510001A300870082E25D2DFE806F004080C101418DA
S31510001A401C2005254FF00F0A20E006254FF0100A3E
S31510001A501CE007254FF0110A18E008254FF0120A6E
S31510001A6014E009254FF0130A10E00A254FF0140A66
S31510001A700CE020254FF0190A08E021254FF01A0A2C
S31510001A8004E0DFF8CC82A8F10B0864E000BFB1488F
S31510001A9000EBC6000079012804D1DFF8B482A8F162
S31510001AA0050857E00CB1206920B9DFF8A482A8F127
S31510001AB00A084FE0207B242805DC607B072802DC1F
S31510001AC0A07B012802DDA248093800E00020A8BB4F
S31510001AD0A04850F83670D9F82400012101FA0AF10D
S31510001AE08843C9F82400002038610120F860606836
S31510001AF038602068786094E80F00CDE90523CDE9B9
S31510001B000301206907900799CDE900311346304645
S31510001B10DDE90312FFF726FF8046B8F1000F18D152
S31510001B20226920212846FFF703FF8046B8F1000FEF
S31510001B3005D0DFF82482A8F102080AE00AE00121A4
S31510001B40844800EBC60001710021824800EBC600F4
S31510001B50417100BF00BF404608B0BDE8F08730B500
S31510001B6001467B4B082901DB794B0B3B794800EB8F
S31510001B70C1000079012802D0754B5B1F17E075482C
S31510001B8000EBC1004079012802D1734B5B1E0EE0B9
S31510001B904FF08042506A01248C4040EA0440506263
S31510001BA000256C4C04EBC1042571002300BF1846B8
S31510001BB030BD724A51064868714B1843486000BFE1
S31510001BC048686F4B184018B1101EA2F10102F7D1E8
S31510001BD00020704770B505465E4850F83560082DF0
S31510001BE015D2DFE805F00406080A0C0E10120524BB
S31510001BF00EE006240CE007240AE0082408E0092475
S31510001C0006E00A2404E0202402E0212400E006E095
S31510001C1000BF0120F0602046FFF77BFE00BF70BDBD
S31510001C20F0B587B006460C46494F062E10D2DFE8AF
S31510001C3006F0030507090B0D05250CE006250AE03D
S31510001C40072508E0082506E0092504E00A2502E034
S31510001C503F4F0B3F46E000BF3E4800EBC600007901
S31510001C60012802D03C4F3F1F3BE03A4800EBC6002C
S31510001C704079012802D1384F7F1E32E00CB120691D
S31510001C8010B9334F0A3F2CE0207B242805DC607BFB
S31510001C90072802DCA07B012802DD2D48093800E068
S31510001CA00020F0B994E80F00CDE90423CDE9020134
S31510001CB0206906900699CDE9003113463046DDE9D4
S31510001CC00212FFF74FFE07465FB93046FFF782FF55
S31510001CD0226920212846FFF72BFE07460FB11E4F1B
S31510001CE0BF1E00BF384607B0F0BD10B50146184AF2
S31510001CF0082902DB164A0B3A1FE0164800EBC10012
S31510001D000079012802D0144A121F16E0114800EB80
S31510001D10C1004079012802D10F4A521E0DE00D4B29
S31510001D2053F83100036943F0800303610124094B22
S31510001D3003EBC1035C71002200BF104610BD10B545
S31510001D400146034A08291DDB014A0B3A30E0000020
S31510001D500D0000700400002005007970000001409D
S31510001D6000100140002001400030014000400140B9
S31510001D70005001400060014000700140A086010043
S31510001D80E0070009CB4800EBC1000079012801D01B
S31510001D90C94A0DE0C74B53F83100036923F080039D
S31510001DA003610024C34B03EBC1035C71002200BF27
S31510001DB0104610BD0246C148082A02DBBF480B3840
S31510001DC010E0BC4B03EBC2031B790BB9BA4809E010
S31510001DD011B9BA480A3805E0B64B53F832301B68C9
S31510001DE00B60002070472DE9F04104460E4615465B
S31510001DF0B24F082C02DBB14F0B3F74E0AD4800EB3D
S31510001E00C4000079012801D0AB4F6CE0A94800EB63
S31510001E10C4004079012802D1A74FFF1C63E015B911
S31510001E20A64F0A3F5FE00020DFF888C25CF8343026
S31510001E3026B1012E16D0022E50D141E02978242940
S31510001E4002D99E4F093F0CE0186920F49C7001F0EE
S31510001E50070C40EACC0001F0080C40EA0C2018618F
S31510001E6000273EE02A4692F80DC0BCF1070F02DDAE
S31510001E70924F093F23E092F80DC0BCF1030F0CD12D
S31510001E80DFF830C25CF834C0DCF804C0D2F8088041
S31510001E90C44502D2894F093F11E092F80DC0BCF13A
S31510001EA0030F03D1D2F808C0C3F808C0186920F090
S31510001EB0070092F80DC04CEA00001861002710E0E8
S31510001EC02978012902D97D4F093F06E0186920F0CB
S31510001ED0400040EA81101861002702E0774F3F1F4B
S31510001EE000BF00BF00BF3846BDE8F0812DE9F041C4
S31510001EF005460E46714F062D10D2DFE805F0030594
S31510001F0007090B0D05240CE006240AE0072408E057
S31510001F10082406E0092404E00A2402E0674F0B3F78
S31510001F201CE000BF634800EBC5000079012801D012
S31510001F30614F12E05F4800EBC5004079012802D1DD
S31510001F405D4FFF1C09E016B95C4F0A3F05E03246AB
S31510001F5020212046FFF79CFC002700BF3846BDE82D
S31510001F60F08170B50546554E062D10D2DFE805F006
S31510001F70030507090B0D05240CE006240AE00724C7
S31510001F8008E0082406E0092404E00A2402E04B4E87
S31510001F900B3E16E000BF474800EBC500007901284C
S31510001FA001D0454E0CE0434800EBC50040790128AE
S31510001FB002D1414EF61C03E02046FFF77CFC0026BA
S31510001FC000BF304670BD70B505463C4E082D15D283
S31510001FD0DFE805F00406080A0C0E1012052410E0BE
S31510001FE006240EE007240CE008240AE0092408E081
S31510001FF00A2406E0202404E0212402E02E4EB61C1A
S3151000200005E000BF2046FFF766FC002600BF3046FD
S3151000201070BD70B50546294E082D15D2DFE805F0BE
S315100020200406080A0C0E1012052410E006240EE011
S3151000203007240CE008240AE0092408E00A2406E034
S31510002040202404E0212402E01B4EB61C05E000BF4C
S315100020502046FFF74FFC002600BF304670BD70B516
S315100020600B4600F110010E6826F08004802544EA24
S31510002070C5160E6000BF0D6825F0070444F0010573
S315100020800D6000BF0D6825F41C6444EAC3050D609D
S3151000209001210160426000F110010D6825F08004F5
S315100020A044F080040D6825430D6070BD0121C160A8
S315100020B07047000004000020010079700D000070C8
S315100020C003B59DF8002002EB4203F94A02EBC30266
S315100020D0506802680A43026000BF02680A40002A7C
S315100020E0FBD10CBD2DE9F3470C46F24F9DF80000CD
S315100020F0032802DBEF4F093FAEE014B9ED4F0A3F5C
S31510002100AAE0EB48001F006810B9EA4F7F1FA3E052
S315100021102078032802DDE74F0B3F9DE06078022808
S3151000212002DDE44F0B3F97E06078022805D0A078D7
S31510002130012802DDDF4F0B3F8EE0E078012802DD3B
S31510002140DC4F0B3F88E02079012802DDD94F0B3F89
S3151000215082E0207928B96079012802DDD54F0B3F3E
S315100021607AE0A068B0F5966F03D3A068B0F5612F3A
S3151000217002D9D04F0B3F6FE09DF8000000EB4001F5
S31510002180CB4800EBC100466800BF706800F0030042
S3151000219000285FD10025C84909684800C11700EB1F
S315100021A051614FEAE119D4F80880B9FBF8F0C0F391
S315100021B00B003061B9FBF8F008FB1090C001A16864
S315100021C0B0FBF1F000F07F007061356825F44065D2
S315100021D0207845EA80256078022802D125F010057E
S315100021E00EE045F0100525F02005607845EA40150B
S315100021F06078022804D025F04005A07845EA8015BD
S3151000220025F48055E07845EA003525F40055207907
S3151000221045EA403525F00F0545F001053560207972
S3151000222020B1F069617940EA4100F061E06870B16F
S31510002230E2689DF8001001EB41039D4951F8330007
S315100022403021FFF775FB07461FB19C4F01E0994FF0
S315100022500A3F00E099E700BF3846BDE8FC870FB497
S315100022602DE9F047DFF84CA203254FF0804990483E
S31510002270001F006858B992498D48001F8160914926
S3151000228001629149816301208949091F08609DF8FF
S31510002290200020B1012818D0022842D12BE09DF849
S315100022A0200000EB4001824800EBC1004668874CD5
S315100022B04FF0000809272D020E219DF8200000EB93
S315100022C040027B4840F8321030E09DF8200000EBC9
S315100022D04001774800EBC10046687C4C4FF000087F
S315100022E00A272D030F219DF8200000EB40027048AD
S315100022F040F832101AE09DF8200000EB40016C48BF
S3151000230000EBC1004668724C4FF001080427AD037C
S3151000231022219DF8200000EB4002654840F832105B
S3151000232004E0DFF890A1AAF1090A25E000BFD9F868
S3151000233024000121B9408843C9F82400D9F82400A3
S31510002340012101FA08F18843C9F824002068A8433E
S315100023502060A06EA843A0660020B060F06009A9B6
S315100023609DF82000FFF7BEFE82464FF440719DF89F
S315100023702000FFF7A5FE00BF5046BDE8F0075DF848
S3151000238014FB544A51064868534B1843486000BF23
S315100023904868514B184018B1101EA2F10102F7D12E
S315100023A00020704713B5434B9DF80000032802DB4D
S315100023B0404B093B28E011B93E4B0A3B24E09DF8FF
S315100023C0000000EB40023A4800EBC200406810B92A
S315100023D0384B083B18E09DF8002002EB4204344AC3
S315100023E002EBC4025068426802F010024AB9026A4F
S315100023F002F4807414B90A70002301E02D4B1B1FE0
S3151000240001E02C4B9B1F00BF18461CBD13B5294A73
S315100024109DF80000032802DB264A093A28E09DF8B9
S31510002420000000EB4003224800EBC300406810B9DF
S31510002430204A083A1CE09DF8003003EB43041C4B7D
S3151000244003EBC4035868436803F080036BB9016259
S3151000245000BF436803F04003002BFAD0436803F033
S315100024600103002BF5D1002201E0124A921F00BF92
S3151000247010461CBD33B50C460E4D9DF800000328C2
S3151000248002DB0C4D093D11E09DF8000000EB400108
S31510002490074800EBC100406810B9064D083D05E03D
S315100024A021469DF80000FFF70BFE002528463CBD8F
S315100024B0480000200D000070F4C101100500717075
S315100024C00000024000100240002002400080004040
S315100024D000900040A08601000018001003B59F4828
S315100024E09DF80020032A02DB9C4809381AE011B92E
S315100024F09A480A3816E09DF8002002EB4203984AE3
S3151000250002EBC302526812B9944808380AE09DF8E3
S31510002510002002EB4203924A02EBC3025268526851
S315100025200A6000200CBD2DE9F141DFF830829DF8DC
S315100025300000032804DBDFF82482A8F1090845E02F
S315100025409DF8000000EB4001854800EBC100406893
S3151000255020B9DFF80882A8F1080837E04FF0804765
S31510002560804D4FF440719DF80000FFF7A9FD002142
S315100025709DF8000000EB4002794800EBC20040686D
S3151000258081609DF8000010B1012808D103E00926EA
S315100025904FF4706408E00A264FF4706404E0DFF824
S315100025A0BC81A8F10B0812E000BF786A0121B14086
S315100025B008437862286820432860A86E2043A866DE
S315100025C000206749091F0860804600BF00BF4046CB
S315100025D0BDE8F88173B50C46604D9DF8000050B10A
S315100025E09DF80000012806D09DF80000022802D0B0
S315100025F05A4D0B3D1AE09DF8000000EB400158487B
S3151000260000EBC100406808B9574D0FE014B9534D9F
S315100026100A3D0BE09DF8001001EB4102504951F8BC
S31510002620320022462021FFF733F9002528467CBDCB
S3151000263031B54A4C9DF8000050B19DF800000128B4
S3151000264006D09DF80000022802D0444C0B3C14E042
S315100026509DF8000000EB4001414800EBC1004068C6
S3151000266008B9414C09E09DF8001001EB41023C49C4
S3151000267051F83200FFF71FF90024204638BD73B514
S315100026800C46364D9DF8000050B19DF8000001280B
S3151000269006D09DF80000022802D0304D0B3D16E002
S315100026A0012C0AD19DF8001001EB41022C4951F87A
S315100026B03200FFF710F9002509E09DF8001001EB34
S315100026C04102274951F83200FFF714F90025284630
S315100026D07CBD03B59DF8002002EB4203204A02EBB5
S315100026E0C3025068C2688A43C2600CBD03B59DF828
S315100026F0002002EB42031A4A02EBC3025068C2687A
S315100027008A43C26082680A4382600CBD01B59DF897
S31510002710001001EB4102124951F83200FFF7F9F8A7
S3151000272008BD1FB5044621600298206103986061B8
S31510002730002004B010BD014600BF486800F020001C
S315100027400028FAD1086AC0B2704700BF426802F08A
S315100027504002002AFAD10162704700000D00007095
S3151000276048000020008000400100717070B50446DA
S315100027700D461646092C00DA15B94FF0FF3070BD1C
S315100027804B4840F8345000EBC4004660204600F039
S31510002790DCFB0020F3E710B50446092C02DB4FF0F2
S315100027A0FF3010BD204600F0E1FB0020404941F803
S315100027B0340001EBC401486000BFF2E710B53D4894
S315100027C000F03AFA3B48007800F0010038B138487A
S315100027D0006820B1364841680268002090473548A5
S315100027E00078C0F3400038B13148806820B13048D5
S315100027F0C1688268012090472E480078C0F3800097
S3151000280038B12B48006920B1294841690269022074
S31510002810904728480078C0F3C00038B12448806932
S3151000282020B12348C1698269032090472148007866
S31510002830C0F3001038B11E48006A20B11C48416A26
S31510002840026A042090471B480078C0F3401038B144
S315100028501748806A20B11648C16A826A05209047D7
S3151000286014480078C0F3801038B11148006B20B1BD
S315100028700F48416B026B062090470E480078C0F354
S31510002880C01038B10A48806B20B10948C16B826B01
S315100028900720904707480088C0F3002038B1044845
S315100028A0006C20B10248416C026C0820904710BDA4
S315100028B0A0C40020500800200246002106E0002097
S315100028C0FE4B43F82100FE4B5854491C1029F6DBE9
S315100028D04020FB4B18700020FA4B1860012018603E
S315100028E00020F94B1860F74BC3F804022020F64B72
S315100028F0083B186000201860F448F34B1433186036
S31510002900002070472020F049083908600020ED4962
S31510002910C1F8040208607047EB48006840F4B850EC
S31510002920E849C1F80C020846D0F8800240F01000C1
S31510002930C1F880020846D0F8040240F40270C1F8CB
S31510002940040200207047E0480838006820F00800AC
S31510002950DC49C1F804020020704730B5034614461E
S31510002960102B02D34FF0FF3030BD402C02D94FF060
S31510002970FF30F9E70A4642F0400211B922F0100280
S3151000298001E042F01002CE4DEC54CF48743040F8BE
S3151000299023200020E8E70146CB48743050F8210088
S315100029A000F0030008B1012070470020FCE770B565
S315100029B004464CB9C448743050F8240040F40071F1
S315100029C0C148743040F82410BF48743050F82400C1
S315100029D040F48071BC48743040F82410B74850F861
S315100029E024500020B54941F8240035B1401E286115
S315100029F0686910B1D5E905108847002070BD0146F9
S31510002A00B148743050F8210040F04002AE4874309E
S31510002A1040F8212050F8210020F48072AA48743022
S31510002A2040F82120002070470146A748743050F81E
S31510002A302100C0F30020704770B50446102C02D355
S31510002A404FF0FF3070BD9D4850F8245000209B4930
S31510002A5041F824009C48743050F8240020F00301FB
S31510002A609948743040F8241050F8240040F0400182
S31510002A709548743040F824103DB14FF0FF3028616E
S31510002A80686910B1D5E9051088470020DAE70146D4
S31510002A908D48743050F8210040F480628A487430B2
S31510002AA040F82120002070472DE9F0478146002488
S31510002AB058E0012000FA04F709EA070000B950E0CF
S31510002AC07E4850F8240000B94BE07C4850F824505A
S31510002AD0D5E90201A0EB010814B97C4E103604E0CA
S31510002AE0601E7A49203101EB0016306848B9002083
S31510002AF0724941F82400686910B1D5E90510884774
S31510002B002FE0B8F1000F16D06D48005D404503D890
S31510002B106B48005D306001E0C6F80080E8683168F7
S31510002B200844E86070686649095D08447060664844
S31510002B301C30076014E06249095D491EA868084008
S31510002B4028B90020306060481C30076008E000207B
S31510002B505A4941F82400686910B1D5E9051088472B
S31510002B6000BF641C102CA4D3BDE8F0872DE9F047F4
S31510002B70814600255CE0012000FA05F709EA070006
S31510002B8000B954E04D4850F8250000B94FE00DB992
S31510002B904E4E04E0681E4D49203101EB00164748A1
S31510002BA050F82540D4E90201401A4549495D88424A
S31510002BB003D3434810F805A003E0D4E90201A0EBC3
S31510002BC0010A3068504501D9D04601E0D6F8008098
S31510002BD0E0684044E060207F012806D03848405D18
S31510002BE0404502D8B8F1000F09D10020334941F809
S31510002BF025006069D0B1D4E90510884716E07068E1
S31510002C002F49495D08447060D4E90201401A2C49E5
S31510002C10495D884203D32A48405D306003E0D4E919
S31510002C200201401A306028482030076000BF6D1C32
S31510002C30102DA0D3BDE8F087F8B504462248001F32
S31510002C400068009960F3000100911E48D0F8080250
S31510002C504108009861F3410000901B48001F00686E
S31510002C608108009861F3820000901648D0F8080297
S31510002C70C108009861F3C30000901348001F006854
S31510002C800109009861F3041000900E48D0F808026C
S31510002C904109009861F3451000900B48001F006829
S31510002CA08109009861F3861000900748001F00689C
S31510002CB0C109009861F3C710009009E010C7002001
S31510002CC050C7002000000B400C020B4000C600202D
S31510002CD0FA48001F0068010A009861F30820009066
S31510002CE0F648001F0068410A009861F349200090D9
S31510002CF0F248001F0068810A009861F38A2000904C
S31510002D00EE48001F0068C10A009861F3CB200090BE
S31510002D10EA48001F0068010B009861F30C30009020
S31510002D20E648001F0068410B009861F34D30009093
S31510002D30E248001F0068810B009861F38F30009005
S31510002D40DF48D0F80802010C009861F3104000909B
S31510002D50DB490098D1F8081260F30001D748001F2C
S31510002D60016000984108D648D0F8080261F3410086
S31510002D70D249091F086000988108D148D0F8080286
S31510002D8061F38200CD49091F08600098C108CC483C
S31510002D90D0F8080261F3C300C849091F08600098FB
S31510002DA00109C748D0F8080261F30410C349091F86
S31510002DB0086000984109C248D0F8080261F345102E
S31510002DC0BE49091F086000988109BD48D0F808025D
S31510002DD061F38610B949091F08600098C109B848FF
S31510002DE0D0F8080261F3C710B449091F08600098AB
S31510002DF0010AB348D0F8080261F30820AF49091F49
S31510002E0008600098410AAE48D0F8080261F34920DC
S31510002E10AA49091F08600098810AA948D0F8080233
S31510002E2061F38A20A549091F08600098C10AA448C1
S31510002E30D0F8080261F3CB20A049091F086000985A
S31510002E40010B9F48D0F8080261F30C309B49091F0B
S31510002E5008600098410B9A48D0F8080261F34D308B
S31510002E609649091F08600098810B9548D0F808020A
S31510002E7061F38F309149091F08600098010C904842
S31510002E80D0F8080261F310408D49C1F80802009885
S31510002E90216860F30001216000984108206861F301
S31510002EA04100206000988108206861F3820020604C
S31510002EB00098C108206861F3C300206000980109DA
S31510002EC0206861F30410206000984109206861F3BE
S31510002ED04510206000988109206861F386102060F3
S31510002EE00098C109206861F3C71020600098010A94
S31510002EF0206861F3082020600098C0F3C00040B13C
S31510002F00002703E03846FFF797FD7F1C102FF9DBEB
S31510002F10F8BD0098C0F3402040B1684824300568D9
S31510002F206748C0F830522846FFF7BEFD0098C0F338
S31510002F30802040B16148283006686148C0F8346284
S31510002F403046FFF713FE00BFE2E7014600220929CB
S31510002F5001DB501E7047012000FA01F25748006845
S31510002F601043574BC3F80C020020F3E7014600222A
S31510002F70092901DB501E7047012000FA01F24F4863
S31510002F80006890434E4BC3F80C020020F3E701464D
S31510002F904A480C38026E0A60406E4860002070473E
S31510002FA0F0B50246116855689468012000FA01F6DA
S31510002FB0102901D3801EF0BD05F0030010B14FF0AB
S31510002FC0FF30F8E73D48743050F8210000F0030058
S31510002FD010B94FF0FF30EEE73A4850F8210020B90B
S31510002FE036481C300068304010B14FF0FF30E2E731
S31510002FF0344840F821200020106109B9324B04E012
S31510003000481E314F103707EB00133048405CA04282
S3151000301009D22E48405C18602C48405C294F57F85E
S315100030202170F86004E01C60264850F82100C46046
S315100030305D6022481C3006600020BCE730B50246B1
S315100030401368012000FA03F5102B01D3801E30BD42
S31510003050107900F0030010B14FF0FF30F7E7184673
S31510003060FFF799FC18B11846FFF7DEFC10B14FF0C8
S31510003070FF30ECE713B9144C103C04E0581E12490B
S31510003080103101EB00140F4850F8230020B90B48FB
S3151000309020300068284010B14FF0FF30D7E70948BC
S315100030A040F8232000201061D0600849C95C906860
S315100030B088420DD2906820600DE000000C020B4093
S315100030C000000B4010C7002010C6002050C700207B
S315100030D00448C05C206050686060034805600020AA
S315100030E0B5E7000050C700202C020B4010B504466F
S315100030F0E08818B10020FFF75AFC10BDF748006AA7
S3151000310050B1F648C169826920469047002809DA0D
S315100031100020FFF74CFCF0E7608818B10020FFF79D
S3151000312046FCEAE70020FFF7B2FCE6E770B5054675
S31510003130688810B9E888012803D00020FFF737FC0B
S3151000314070BDE648006A70B1E448416A026A2846D2
S3151000315090470446002C03DA0020FFF728FCEFE71F
S31510003160DF490C7002E00020DD4908702022DD499D
S31510003170DD4801F046FEDA48DB49486001208860E8
S315100031800846FFF70DFF0446002C04DA0020FFF76F
S315100031900EFC2046D4E70020D2E710B50446A088DE
S315100031A008B9E08818B10020FFF701FC10BDCB4824
S315100031B0006950B1C9484169026920469047002804
S315100031C003DA0020FFF7F3FBF0E7A078C749087091
S315100031D00020FFF75CFCE9E770B50446608820B96B
S315100031E0A08810B9E088012803D00020FFF7DFFB84
S315100031F070BD2022BB49BC4801F003FEBB48BA494A
S315100032004860012088600846FFF7CAFE0546002D73
S3151000321004DA0020FFF7CBFB2846E9E70020E7E7B2
S315100032207CB50446002001900090608800120128A9
S3151000323004D0022817D0032844D12EE0207800F0BD
S315100032401F0008B9A08810B1002000900AE0A84815
S3151000325000680190019810B90020009002E00198D2
S315100032600078009040E0207800F01F0008B9A08890
S3151000327010B1002000900FE09D4840680190019821
S3151000328010B90020009007E0019880780199C9785C
S3151000329000EB012080B2009026E0207800F01F009D
S315100032A000B110E0A078082809DAA078801C9049AF
S315100032B051F82000019001980078009001E000205C
S315100032C0009011E000BF8B48006850B16A4601A912
S315100032D02046884B1B689847019820B9002000901B
S315100032E001E00020009000BF00BFE088BDF800108C
S315100032F0884201DAE0880090BDF80000002815DD4C
S3151000330020227849784801F07CFD77490198486079
S31510003310BDF8000088600846FFF742FE0546002DFE
S3151000332008DA0020FFF743FB28467CBD0020FFF794
S315100033303EFBFAE70020F8E770B50446E088A0B92E
S31510003340608820B9207800F01F0002280DD160880F
S31510003350012803D1207800F01F0030B960880228B8
S3151000336007D1207800F01F0018B10020FFF71FFBCF
S3151000337070BD608878B9A08800280CDD217901F02D
S315100033800F00FFF714FB0546002D0ADA0020FFF7A1
S315100033900EFB2846ECE70020FFF709FB4FF0FF3045
S315100033A0E6E70020FFF773FBE2E770B504462078E6
S315100033B000F08000B0B9E088A0B9608820B9207804
S315100033C000F01F0002280DD16088012803D1207853
S315100033D000F01F0030B96088022807D1207800F06D
S315100033E01F0018B10020FFF7E2FA70BD608878B9A7
S315100033F0A08800280CDD217901F00F00FFF7FFFAF5
S315100034000546002D0ADA0020FFF7D1FA2846ECE728
S315100034100020FFF7CCFA4FF0FF30E6E70020FFF769
S3151000342036FBE2E770B50446608840B9E0880228AA
S3151000343005D1207800F01F0028B9A08818B1002007
S31510003440FFF7B5FA70BD207800F01F00022804D0EF
S31510003450002023490870487015E0217901F00F000B
S31510003460FFF7E2FA0546002D04DA0020FFF79FFA6F
S315100034702846E7E7002D01DD012000E0002018496D
S3151000348008700020487020221649174801F0B9FC30
S31510003490134815494860022088600846FFF780FDEA
S315100034A00546002D04DA0020FFF781FA2846C9E701
S315100034B00020C7E770B5054668780D284AD2DFE8C0
S315100034C000F0071B492049252A2F32373C41460078
S315100034D02846FFF7A7FF04463FE0000060C700201C
S315100034E05C080020F8D2011088C700205808002078
S315100034F0A8C70020540800202846FFF756FF0446A8
S315100035002BE02846FFF718FF044626E00020FFF7B9
S31510003510BEFA044621E02846FFF782FE04461CE068
S315100035204FF0FF3419E02846FFF756FE044614E024
S315100035302846FFF732FE04460FE02846FFF7F6FD51
S3151000354004460AE02846FFF7D1FD044605E04FF091
S31510003550FF3402E04FF0FF3400BF00BF204670BDBD
S315100035607CB505460E466846FFF711FD002802DABF
S315100035704FF0FF307CBD4548406828B10020FFF76A
S3151000358016FA4FF0FF30F5E79DF8000000F06000E6
S3151000359020B1202807D040281FD111E06846FFF738
S315100035A089FF04461CE03A48006830B13848416843
S315100035B0026868469047044601E04FF0FF340FE07A
S315100035C03348806830B13248C1688268684690478F
S315100035D0044601E04FF0FF3402E04FF0FF3400BF25
S315100035E000BF002C02DA0020FFF7E1F92046C1E700
S315100035F010B52821264801F060FC2021254801F04D
S315100036005CFC002224490820FFF7B0F8002010BD0A
S315100036100346052B02DB4FF0FF3070471C4840F87D
S31510003620331000EBC30042600020F6E701461B484A
S3151000363001600020704770B504462546286918B900
S315100036400020FFF724FA02E00020FFF7B0F920214E
S31510003650284601F032FC70BD10B50346032B01DA83
S31510003660082A02DB4FF0FF3010BD022B00DA0022D1
S315100036709818084C44F820100020F5E70848007800
S3151000368070470020064908707047000088C7002060
S3151000369060C70020A8C7002061350010540800201C
S315100036A05808002010B50346FD48032B01DBFD48E2
S315100036B00EE01F2902DDFB48401C09E0002A03DB4F
S315100036C0C1F12004944202DAF648401C00E00020C2
S315100036D010BDF0B504460D461646F14F3246294642
S315100036E02046FFF7DFFF07466FB94FF0FF33B340B1
S315100036F0DA43ED4B03EBC4035968C86802FA05F3C5
S315100037001843C86000BF3846F0BD2DE9F0410646A3
S315100037100F4614461D46DFF888832A462146304652
S31510003720FFF7C0FF8046B8F1000F39D14FF0FF3CCC
S315100037300CFA05FC6FEA0C00DFF86CC30CEBC60C38
S31510003740DCF8043019689A6E27B1012F0BD0022FBE
S315100037501BD111E000FA04FC4CEA010100FA04FC4A
S3151000376022EA0C0216E000FA04FC21EA0C0100FA27
S3151000377004FC22EA0C020DE000FA04FC21EA0C011A
S3151000378000FA04FC4CEA020204E0DFF8188308F1A0
S31510003790010806E000BF19609A664FF0000800BFE6
S315100037A000BF4046BDE8F0812DE9F04106460F46C0
S315100037B014461D46DFF8E8822A4621463046FFF7B2
S315100037C071FF8046B8F1000F44D14FF0FF3C0CFA60
S315100037D005FC6FEA0C00DFF8D0C20CEBC60CDCF867
S315100037E00430196E5A6E37B1012F0DD0022F14D036
S315100037F0032F24D11AE000FA04FC21EA0C0100FA86
S3151000380004FC22EA0C021FE000FA04FC4CEA010157
S3151000381000FA04FC22EA0C0216E000FA04FC21EA83
S315100038200C0100FA04FC4CEA02020DE000FA04FC5A
S315100038304CEA010100FA04FC4CEA020204E0DFF84B
S31510003840648208F1010806E000BF19665A664FF057
S31510003850000800BF00BF4046BDE8F081F0B5044641
S315100038600D4616468E4F324629462046FFF71AFF5A
S3151000387007466FB94FF0FF33B340DA438A4B03EB79
S31510003880C4035968C86802FA05F39843C86000BFB4
S315100038903846F0BD70B504460B4615464FF0FF3658
S315100038A0AE40F243804E06EBC4067168886902FA90
S315100038B003F6B0438861486B02FA03F6B0434863D7
S315100038C0C86C02FA03F6B043C86470BD0FB4F0B505
S315100038D007460D461646724C324629463846FFF7BD
S315100038E0E1FE044604B12AE0324629463846FFF77F
S315100038F0D1FF324629463846FFF7B0FF044604B1D9
S315100039001DE09DF8241033462A463846FFF74CFF33
S31510003910044604B113E09DF8211033462A46384672
S31510003920FFF7F3FE04464CB99DF82000012805D197
S31510003930324629463846FFF7CCFE044600BF2046DD
S31510003940F0BC5DF814FB0FB4F8B505460E461746E5
S31510003950534C5548001F006858B954495248001F27
S315100039608160534901615349816101204E49091F04
S3151000397008603A4631462846FFF794FE044604B1DD
S3151000398015E03A4631462846FFF784FF9DF8280091
S315100039908DF800003A4631462846099BFFF796FFF8
S315100039A004461CB90121404800F8351000BF2046D6
S315100039B0F8BC5DF814FB404A5106486840F0070011
S315100039C0486000BF486800F0070018B1101EA2F149
S315100039D00102F7D10020704730B50446304D202241
S315100039E000212046FFF756FF202200212046FFF730
S315100039F035FF05461DB900212B4800F8341028461E
S31510003A0030BDF0B504460D461646254F32462946BA
S31510003A102046FFF747FE07465FB94FF0FF32B24028
S31510003A20D143214A02EBC402506801FA05F28263BF
S31510003A3000BF3846F0BDF0B504460D461646184F81
S31510003A40324629462046FFF72DFE07465FB94FF04E
S31510003A50FF32B240D143144A02EBC402506801FA55
S31510003A6005F2C26300BF3846F0BDF0B504460D46F8
S31510003A7016460B4F324629462046FFF713FE0746D9
S31510003A805FB94FF0FF32B240D143074A02EBC4028E
S31510003A90506801FA05F2826400BF3846F0BD000096
S31510003AA00D00007002007470940000200080004029
S31510003AB00090004000A00040A08601002DE9F041D2
S31510003AC004460D4616461F46DFF81482324629462E
S31510003AD02046FFF7E7FD8046B8F1000F0DD14FF0F5
S31510003AE0FF32B240D1437F4A02EBC4025068026CE7
S31510003AF001FA05F31A403A6000BF4046BDE8F0816E
S31510003B0030B5044676481CB1022B01DA76480AE035
S31510003B101F2901D9744806E0C1F12005954201D24A
S31510003B20714800E0002030BD02466E4800EBC2002E
S31510003B30406881610020704702466A4800EBC20067
S31510003B40406880690860002070470246654800EBAF
S31510003B50C2004068406A086000207047F0B506460B
S31510003B600B4615465E4F13B95D4F0A3F0BE0002416
S31510003B7005E053F824103046FFF7D6FF641CAC421C
S31510003B80F7D3002700BF3846F0BDF0B506460B4602
S31510003B901546534F13B9524F0A3F0BE0002405E068
S31510003BA003EB84013046FFF7D0FF641CAC42F7D319
S31510003BB0002700BF3846F0BD2DE9F04105460C46FA
S31510003BC016461F46DFF81881324621462846FFF76B
S31510003BD069FD8046B8F1000F10D14FF0FF33B340A6
S31510003BE0DA43404B03EBC5035968886902FA04F3BC
S31510003BF0984307FA04F31843886100BF4046BDE8AE
S31510003C00F0812DE9F04105460E4617461C46DFF8B1
S31510003C10D0803A4631462846FFF744FD8046B8F133
S31510003C20000F10D14FF0FF32BA40D0432D4A02EBAD
S31510003C30C50251684A6A22602268F24022602268F0
S31510003C400240226000BF4046BDE8F08170B50346D1
S31510003C50234D1F2901D9244D17E00020214E06EBD4
S31510003C60C3067468002512B1012A0AD103E00126A1
S31510003C708E40B04307E0E06901268E403043E06194
S31510003C8001E0194D00BF00BF00BF284670BD70B5DA
S31510003C90034613481F2901D913480FE0114D05EBB0
S31510003CA0C3056C68656A01268E40354015B101253D
S31510003CB0157001E000251570002000BF70BDF0B52D
S31510003CC005682E684368846804FA03F726EA070233
S31510003CD0012902D104FA03F73A432A60F0BD000025
S31510003CE00D00007094000020030074702DE9F84355
S31510003CF006460D46DFF8F893002000904FF08047F7
S31510003D0026B1012E0CD0022E1ED113E0F949FA4825
S31510003D1000EBC6004160786A20F04000786218E037
S31510003D20F649F54800EBC6004160786A20F080003D
S31510003D3078620EE0F249F04800EBC6004160786AFE
S31510003D4020F48070786204E0DFF8A493A9F10909E1
S31510003D50ECE000BF6846FDF794FA8146B9F1000F12
S31510003D6000D0E3E0687A01280AD12868400000995B
S31510003D70B1FBF0F1E04800EBC6004068416106E097
S31510003D804FF6FF71DC4800EBC60040684161DA4827
S31510003D9000EBC6004068C46824F03C04287A10285A
S31510003DA005D10021D44800EBC600417006E0287A00
S31510003DB000F00F01D04800EBC60041700021CE483C
S31510003DC000EBC600418088460EE0CB4800EBC600EB
S31510003DD04088012101FA08F189B20143C64800EB77
S31510003DE0C600418008F10108C34800EBC6004078C0
S31510003DF04045EAD8C04800EBC600407844EA800443
S31510003E0024F00304687A012810D1A87B012802D176
S31510003E1044F0010401E024F00104E87B012802D1FA
S31510003E2044F002040CE024F0020409E0E87B0128C7
S31510003E3004D1DFF8BC92A9F10B0977E024F0020453
S31510003E4024F08004287C012801D144F08004AA487B
S31510003E5000EBC6004068C460A74800EBC600406887
S31510003E608469687C012810D148F20370844344F0B9
S31510003E701004A87C00F003000443E87C00F007005F
S31510003E8044EA002444F4004401E024F40044287D6C
S31510003E90012810D19B48044044F48014687D00F03A
S31510003EA0030044EA0044A87D00F0070044EA0064D9
S31510003EB044F0004401E024F000448F4800EBC600B3
S31510003EC0406884618C4800EBC60040684468687A94
S31510003ED0012802D144F0020401E024F00204A87A79
S31510003EE0012802D144F0040401E024F00404E87A25
S31510003EF0012802D144F0080401E024F00804287BCC
S31510003F00012802D144F0100401E024F0100424F03A
S31510003F102004687B012801D144F02004764800EB88
S31510003F20C600406844604FF0000900BF4846BDE82F
S31510003F30F8832DE9F04106460C466D4F14B96C4FC7
S31510003F400A3F86E0022E02DD694F0B3F81E06E4983
S31510003F502068884203D82068B0F5377F05D2607A8A
S31510003F60012802D1624F0B3F73E0207A102802DC41
S31510003F70207A012802DA5E4F0B3F6AE026B1012E45
S31510003F8015D0022E53D125E0604D2868A1880F2246
S31510003F9002EAC14141F4E02188432860A86EA18855
S31510003FA002EAC14141F4E0218843A86642E0574D38
S31510003FB0286821790F2202EA017141F06061884375
S31510003FC02860A86E217902EA017141F06061884388
S31510003FD0A8662FE04E4DA088012101EAC0404D4948
S31510003FE00843A188012202EA01510843217902EA15
S31510003FF0C1610843217902EA0171084329688143A6
S315100040002960A088012101EAC04042490843A188DD
S3151000401002EA01510843217902EAC1610843217974
S3151000402002EA01710843A96E8143A96602E0304F86
S31510004030093F0EE000BF002028666866214630461C
S31510004040FFF754FE07461FB901212B4800F836101A
S3151000405000BF3846BDE8F08110B5024624488107F6
S31510004060032A25DA244B03EBC2035B685B6823F053
S315100040700104214B03EBC2035B685C60002022B194
S31510004080012A07D0022A0FD109E04B6A43F04003F8
S315100040904B620CE04B6A43F080034B6207E04B6ABD
S315100040A043F480734B6202E011480B3800BF01E005
S315100040B00F48093810BD184A5106486840F4604048
S315100040C0486000BF486800F4604018B1101EA2F1A5
S315100040D00102F7D1002070472DE9F84303460E463A
S315100040E0174603483146032B18DB01480938D5E13A
S315100040F00D00007000800140B000002000900140CB
S3151000410000A00140FFFFFC78001BB70000800040B4
S315100041100090004000202020A0860100DFF8ECC3AC
S315100041201CF833C0BCF1000F01D1F948B6E1DFF835
S31510004130DCC30CEBC30C9CF801C0BCF1000F01D121
S31510004140102405E0DFF8C4C30CEBC30C9CF8014047
S3151000415000223D46DFF8B4C30CEBC30CDCF804C0F8
S31510004160DCF80CC02CF00108DFF8A0C30CEBC30C74
S31510004170DCF804C0CCF80C8079E1082C7DDC91F8D1
S3151000418000C0CDF800C091F801C0DDF8008048EA03
S315100041900C2CCDF800C0DDF800C02CFA02FCCDF8CE
S315100041A000C0DFF868C30CEBC30CBCF802C0DDF826
S315100041B000800CEA080CCDF800C0C4F11008DDF838
S315100041C000C00CFA08FCCDF800C091F800C0DFF86A
S315100041D03C8308EBC308B8F8028008FA02F82CEA08
S315100041E0080C81F800C004EB020CBCF1080F0FDDBF
S315100041F0DFF818C30CEBC30CBCF802C0C2F10808F8
S315100042000CFA08FC91F8018028EA0C0881F8018064
S31510004210DFF8F8C20CEBC30CDDF80080DCF804C044
S31510004220CCF8008000BFDFF8E4C20CEBC30CDCF85E
S3151000423004C0DCF808C00CF0020CBCF1000FF2D17F
S31510004240DFF8C8C20CEBC30CDCF804C0DCF800C005
S31510004250DFF8B88208EBC308B8F802800CEA080C3D
S31510004260CDF800C091F800C0DDF8008008FA02F819
S315100042704CEA080C81F800C000E011E004EB020CD7
S31510004280BCF1080F0BDD91F801C0C2F10809DDF889
S31510004290008008FA09F84CEA080C81F801C0D9E048
S315100042A091F800C0CDF800C091F801C0DDF800808B
S315100042B048EA0C2CCDF800C091F802C0DDF8008059
S315100042C048EA0C4CCDF800C091F803C0DDF8008028
S315100042D048EA0C6CCDF800C0DDF800C02CFA02FCE0
S315100042E0CDF800C0DFF824C20CEBC30CBCF802C03A
S315100042F0DDF800800CEA080CCDF800C0C4F11008F7
S31510004300DDF800C00CFA08FCCDF800C091F800806A
S31510004310DFF8F8C10CEBC30CBCF802C00CFA02FCB7
S3151000432028EA0C0881F80080082A0FDBDFF8DCC1C8
S315100043300CEBC30CBCF802C0A2F108080CFA08FC7E
S3151000434091F8018028EA0C0881F8018004EB020C30
S31510004350BCF1100F1FDDDFF8B4C10CEBC30CBCF8B9
S3151000436002C0C2F110084CFA08FC91F8028028EA43
S315100043700C0881F80280DFF894C10CEBC30CBCF872
S3151000438002C0C2F118084CFA08FC91F8038028EA1A
S315100043900C0881F80380DFF874C10CEBC30CDDF850
S315100043A00080DCF804C0CCF8008000BFDFF85CC1E8
S315100043B00CEBC30CDCF804C0DCF808C00CF0020CE3
S315100043C0BCF1000FF2D1DFF844C10CEBC30CDCF8E2
S315100043D004C0DCF80080DFF834C10CEBC30CBCF869
S315100043E002C008EA0C08CDF8008091F800C0DDF88C
S315100043F0008008FA02F84CEA080C81F800C0082A76
S315100044000BDB91F801C0A2F10808DDF8009009FA5B
S3151000441008F96CEA090C81F801C004EB020CBCF136
S31510004420100F17DD91F802C0C2F11009DDF80080F7
S3151000443028FA09F82CEA080C81F802C091F803C092
S31510004440C2F11809DDF8008028FA09F82CEA080CE0
S3151000445081F803C002EB040C0CF0FF0205E0491CC6
S31510004460A2F1080C0CF0FF026D1E082AF7DA002DD7
S315100044707FF483AEDFF894C00CEBC30CDCF804C0F9
S31510004480DCF80CC04CF00108DFF880C00CEBC30C54
S31510004490DCF804C0CCF80C80002000BFBDE8F8831F
S315100044A010B502461A48083011B91948801E1DE089
S315100044B0032A02DB1648401E18E0144B13F832305C
S315100044C00BB9134812E0114B03EBC2035B689B68F0
S315100044D003F002040D4B03EBC2035B689C600B4BAD
S315100044E003EBC2035B689B680B60002010BD70B5C0
S315100044F00346074D0835032B02DB054D6D1E17E1EC
S31510004500024810F8330028B9014D11E1B00000201F
S3151000451005000070002510297ED2DFE801F008158D
S31510004520222F3C49566D8693A0ADBAC7DBF1814860
S3151000453000EBC3004068406840F001047D4800EB82
S31510004540C30040684460F2E07A4800EBC30040685C
S31510004550406820F00104774800EBC30040684460CF
S31510004560E5E0744800EBC3004068406840F0020480
S31510004570704800EBC30040684460D8E06D4800EB1B
S31510004580C3004068406820F002046A4800EBC3008C
S3151000459040684460CBE0674800EBC3004068406861
S315100045A040F00404634800EBC30040684460BEE07A
S315100045B0604800EBC3004068406820F004045D4882
S315100045C000EBC30040684460B1E000BF594800EBFF
S315100045D0C3004068806800F002000028F6D15548F4
S315100045E000EBC3004068806940F01004514800EBAE
S315100045F0C300406884619AE000BF4E4800EBC300D8
S315100046004068806900F0E0600028F6D1494800EB68
S31510004610C3004068806900E086E040F48014454895
S3151000462000EBC3004068846181E0424800EBC300A0
S315100046304068406840F008043E4800EBC3004068FC
S31510004640446074E03B4800EBC3004068406820F0CB
S315100046500804384800EBC3004068446067E03548FA
S3151000466000EBC3004068406840F01004314800EB8E
S31510004670C300406844605AE02E4800EBC30040680F
S31510004680406820F010042B4800EBC30040684460DB
S315100046904DE0284C04EBC3046468A06820F0FC00CD
S315100046A0244C04EBC3046468A06040E00AB9224DB0
S315100046B03DE0204E06EBC3067668F66826F0010448
S315100046C0106800F0010634431A4E06EBC3067668EE
S315100046D0F4602CE00AB9184D29E0164E06EBC30615
S315100046E07668F66826F00204106800F0010644EABF
S315100046F04604104E06EBC3067668F46017E0FFE733
S315100047000AB90D4D13E00B4E06EBC3067668F66834
S3151000471026F4E064106800F001063443054E06EBFB
S31510004720C3067668F46002E0034D6D1C00BF00BF3F
S31510004730284670BDB00000200300007070B5064614
S3151000474000F02EFC056806F10B0020F00704B442B9
S315100047509CBF002070BD2B466A68BAB11068A04293
S3151000476010D304F1080188423CBF5068586007D343
S315100047705168101941601168091B01605860146076
S31510004780101D70BD13465268002AE7D121462846EF
S3151000479000F00EFC0028DED170BD70B50446051F72
S315100047A000F0FEFB0068002C14BF446870BD002C9E
S315100047B018BFAC423CBF20466468F8D301680A189B
S315100047C0AA4218BF456003D12A6805461144016004
S315100047D028684119A1421CBF6C6070BD6168696090
S315100047E021680844286070BD53EA020C00F0698005
S315100047F02DE9F04B4FF00006002B1FBFB3FA83F5DF
S3151000480003FA05F424FA05F65E4012BF1643B2FA0F
S3151000481082F502FA05F4C5F120051EBF22FA05FC41
S3151000482044EA0C04203556EA044C4FEA144418BFE7
S31510004830641C4FF000084FF00009904271EB030C16
S3151000484039D3002919BFB1FA81F701FA07F6B0FA80
S3151000485080F700FA07F6C7F120071EBF20FA07FCFB
S3151000486046EA0C062037B6FBF4FCA7EB0507103F0B
S3151000487007F01F0BCBF120060CFA0BFB2CFA06F6F1
S3151000488044BFB3460026202FA4BF5E464FF0000B50
S315100048905BEA060C08BF4FF0010B19EB0B09ABFBDB
S315100048A0027C48EB0608C01B06FB02CC0BFB03CCB4
S315100048B071EB0C01C1E70B46024641464846BDE87E
S315100048C0F08B13B54FF000004FF00001AFF30080EE
S315100048D0BDE81C40704710B54C1084EA530404D54B
S315100048E04042C1F1000138BF491E1B4204D5524255
S315100048F0C3F1000338BF5B1EFFF776FF14F0804F3D
S3151000490004D04042C1F1000138BF491E14F0004FD7
S3151000491004D05242C3F1000338BF5B1E10BD10B560
S31510004920044600F035FB0068005DC00602D504F1B0
S31510004930200010BD204610BD0FB41CB5084B06AAAA
S315100049407B4469460090059800F0E5FB044600207C
S31510004950694600F0F3FB20461CBC5DF814FB000012
S31510004960F907000070B5044685690068C10601D5CF
S31510004970302600E02026C00707D070BDD4E90121FB
S3151000498030469047206A401C20626D1EF6D570BDD9
S3151000499070B5044685690078C00707D170BDD4E9A3
S315100049A0012120209047206A401C20626D1EF6D5FA
S315100049B070BD00002DE9F0410646002410687529E7
S315100049C0314616A510D0AFF30080002802DA404217
S315100049D013A507E031688A0701D512A502E0490739
S315100049E004D511A5012401E0AFF3008000210A22AD
S315100049F006F1240709E0B0FBF2FCB0FBF2F302FB70
S31510004A001C00303078541846491C0028F3D1234630
S31510004A102A463046BDE8F04100F01FBB00000000FA
S31510004A202D0000002B00000020000000F0B40D4601
S31510004A300188090502D5214C7C4402E01F4C7C44B8
S31510004A400E34002100F1240608E002F00F071209C7
S31510004A50E75D42EA03721B097754491C52EA0307C1
S31510004A60F3D102780023120704D5702D06D009B1B0
S31510004A70022311342246F0BC00F0EFBA01231034A1
S31510004A80F8E770B504460D4621461068AFF300806E
S31510004A90024629462046BDE870400023C6E7D21DCF
S31510004AA022F00703D3E90023C0E70368126843F036
S31510004AB0200303600823C3610023B7E7F4880100CD
S31510004AC02DE9F05F894604464FF0000ADFF874B10D
S31510004AD0FB44C0F820A02046E1688847002874D01F
S31510004AE0252806D0D4E901219047206A401C20626F
S31510004AF0F1E700265F462046E168884720280546EC
S31510004B0007DB312D05D2781910F8200C08B10643B1
S31510004B10F1E7B00701D526F00406C4F81CA000275B
S31510004B20C4F818A02A2D09D0284608F041FA38B33F
S31510004B3004EB8708303DC8F8185019E059F8041BE3
S31510004B40204604EB87029161E1688847012F0546EC
S31510004B5018D1E069002820DA26F020061DE0D8F8E2
S31510004B60180000EB800005EB40003038C8F818003C
S31510004B702046E1688847054608F01AFA0028EED163
S31510004B80012F0AD02E2D08D12046E16888477F1CB8
S31510004B900546022F46F02006C4DBA069002803DA7A
S31510004BA0404246F00106A061F00701D026F010063B
S31510004BB06C2D0BD0682D09D04C2D39D06A2D35D0DF
S31510004BC0742D35D07A2D33D016E038E0E1682F46B3
S31510004BD020468847B842054609D16C2F26D04FF497
S31510004BE08060E168064320468847054604E06C2F3E
S31510004BF01AD04FF4807006430DB3A5F14100192861
S31510004C0002D8203546F400664A46294620462660D4
S31510004C104E46FBF763FA80B101280BD0F61D26F03D
S31510004C20070000F1080956E74020E4E78020D8E79E
S31510004C300020D6E706F104094DE7284652E7206A18
S31510004C40BDE8F09F84880100401ECAB210F8011F0B
S31510004C508A4202D00029F9D10020704740EA0103A8
S31510004C60024630B59B0710D14FF0013400E008C260
S31510004C7008C91D1B9D4315EAC41FF8D013F0FF0188
S31510004C8002F8011B0DD01B0AF8E711F8013B002BA7
S31510004C9002F8013B05D011F8013B002B02F8013B4D
S31510004CA0F3D130BD10B5431C02E010F8011B71B1F1
S31510004CB08107FAD14FF0013202C88C1A8C4314EADC
S31510004CC0C211F9D0C01A0A0603D0C01E10BDC01AF0
S31510004CD010BD0A0401D0801E10BD0902FCD0401E72
S31510004CE010BD40EA010370B59B072ED14FF0013677
S31510004CF0042A2AD308C810C99D1B9D43121F15EA02
S31510004D00C61517D0D8B2E1B2401A50EA056110D1D3
S31510004D1098B2A1B2401A50EA05410AD123F07F4059
S31510004D2024F07F41401A50EA052102D1180EA0EB5B
S31510004D30146070BDA342DBD018BA21BA884201D9DB
S31510004D40012070BD4FF0FF3070BD0AB9002070BD54
S31510004D5010F8013B11F8014B63B1A3420AD1521E60
S31510004D6008D010F8013B11F8014B1BB1A34201D139
S31510004D70521EEDD1181B70BD032A40F2308010F080
S31510004D80030C00F0158011F8013BBCF1020F6244D0
S31510004D9098BF11F801CB00F8013B38BF11F8013B61
S31510004DA0A2F1040298BF00F801CB38BF00F8013B0E
S31510004DB011F0030300F02580083AC0F0088051F87E
S31510004DC0043B083A51F804CBA0E80810F5E7121D89
S31510004DD05CBF51F8043B40F8043BAFF30080D207A8
S31510004DE024BF11F8013B11F801CB48BF11F8012B74
S31510004DF024BF00F8013B00F801CB48BF00F8012B97
S31510004E00704710B5203AC0F00B80B1E81850203A20
S31510004E10A0E81850B1E81850A0E81850BFF4F5AF44
S31510004E205FEA027C24BFB1E81850A0E8185044BFCE
S31510004E3018C918C0BDE810405FEA827C24BF51F83B
S31510004E40043B40F8043B08BF7047D20728BF31F82F
S31510004E50023B48BF11F8012B28BF20F8023B48BF80
S31510004E6000F8012B704702F0FF0343EA032242EADF
S31510004E70024200F002B84FF000020429C0F012807E
S31510004E8010F0030C00F01B80CCF1040CBCF1020FE7
S31510004E9018BF00F8012BA8BF20F8022BA1EB0C01BC
S31510004EA000F00DB85FEAC17C24BF00F8012B00F8B2
S31510004EB0012B48BF00F8012B70474FF0000200B5D8
S31510004EC0134694469646203922BFA0E80C50A0E817
S31510004ED00C50B1F12001BFF4F7AF090728BFA0E8C5
S31510004EE00C5048BF0CC05DF804EB890028BF40F891
S31510004EF0042B08BF704748BF20F8022B11F0804FD3
S31510004F0018BF00F8012B70474FF0013C50F8042BE6
S31510004F1051F8043B9A4221D1A2EB0C03934313EAB6
S31510004F20CC1317D150F8042B51F8043B9A4215D1E3
S31510004F30A2EB0C03934313EACC130BD150F8042BBA
S31510004F4051F8043B9A4209D1A2EB0C03934313EA9E
S31510004F50CC13DBD04FF00000704700BFD01A01BA57
S31510004F60B1FA81F101F0180122FA01F0CB40C1F13A
S31510004F702001DBB2C0B2C01A2CFA01F3D11A914348
S31510004F8011EAC311E6D170477047704770470000A9
S31510004F9010B500F0E9F8001D10BD00BF1940010062
S31510004FA000487047D0C70020704770477047704759
S31510004FB038B504460A4600206946AFF3008000283B
S31510004FC008BF38BD02460099204600F0D5F80120EA
S31510004FD038BD012000F0EAB8F8B5AFF300800546F9
S31510004FE000200C46102000BF0646A819A0420DD975
S31510004FF0324669460020AFF30080070008BF00F074
S31510005000D5F80098A04218BF0546C419FFF7C8FF87
S3151000501005600746F01D20F007004619284600F0E7
S315100050200AF8B44208BFF8BDA21B31463868BDE87D
S31510005030F84000F0A1B800210160C0E901107047E6
S315100050401020704710B500F093F8006810BD10B529
S31510005050044600F08DF8046010BD2DE9F0470D46AA
S3151000506099469246044600F124080168880604D53C
S31510005070E06921F01001216000E00120A84201DD65
S31510005080471B00E00027A1697A1902EB0900081AEC
S31510005090A0612078C00602D42046FFF763FC0026E4
S315100050A008E0D4E901211AF806009047206A401C4E
S315100050B0761C20624E45F4DB2078C0060AD52046C1
S315100050C0FFF750FC06E0D4E9012130209047206A12
S315100050D0401C2062381EA7F10107F4DC07E0D4E972
S315100050E0012118F805009047206A401C2062281EEE
S315100050F0A5F10105F3DC2046FFF74AFC20780006EF
S3151000510002D50220BDE8F0870120FBE701694A1CA1
S3151000511002610878704700B58FB0CDE901310021E2
S31510005120059105497944CDE9031011466846FFF704
S31510005130C7FC0FB000BD0000E5FFFFFF0A6802F8CC
S31510005140010B0A60704708B569468DF80000032008
S31510005150ABBE08BD01491820ABBEFEE72600020013
S3151000516000487047C8C7002000487047E8C70020AD
S3151000517000487047C8C70020034640688C46002880
S3151000518018BF88423CBF03464068F8D318681844D5
S31510005190884207D00CF1030020F00700001D411AC9
S315100051A0521A0146081D0A60FFF7F7BA10B500F04B
S315100051B039F8BDE8104000F02FB870477546FFF774
S315100051C0CFFFAE4605006946534620F007008546D8
S315100051D018B020B5FBF7C8FFBDE820404FF0000619
S315100051E04FF000074FF000084FF0000B21F00701B9
S315100051F0AC46ACE8C009ACE8C009ACE8C009ACE8FC
S31510005200C0098D46704710B50446AFF3008020469E
S31510005210BDE81040FAF784BF002801D0FFF79ABF07
S315100052207047000010B5012805D0002103A000F03A
S3151000523021F8012010BD09A1F8E700005349475293
S31510005240544D454D3A204F7574206F662068656140
S3151000525070206D656D6F7279000000003A20486508
S315100052606170206D656D6F727920636F72727570E3
S315100052707465640070B505460C460A2000E06D1C86
S31510005280FFF761FF35B128780028F8D102E0641CD9
S31510005290FFF759FF14B120780028F8D1BDE8704007
S315100052A00A20FFF750BF00002DE9FF4F81B00F46CF
S315100052B0DDF83890DDF8408015469A46DFF87CB068
S315100052C09BF8000001282CD141F2CC503E1807F56E
S315100052D08054284604F04FFE94F8DD2594F9E6052F
S315100052E0294605F07DF94346324628460F9904F0C3
S315100052F003FEC9F8000028789BF801108842E8D10F
S31510005300297800290DD001290BD002290CD00329A8
S3151000531007D12B463A465146CDF80080019803F046
S3151000532091FF05B0BDE8F08F2B463A465146CDF8B1
S315100053300080019803F09DFFF3E70000D4000020E1
S315100053407CB5DDE90654CDE9005403F051FF7CBD70
S3151000535003F065BF2DE9FC4706460F4690464FF40D
S3151000536080694846FFF7EAF905460020019045B1E5
S31510005370287019A301AA4946284607F03DFE0024C5
S3151000538013E00020BDE8FC87B8F1000F02D156F8F3
S31510005390240040B156F82400009010A301AA4946F3
S315100053A0284607F029FE641C64B2BC42ECDB019867
S315100053B0012804D9284410F8011C2C2907D008A369
S315100053C001AA4946284607F017FE2846DAE75D2166
S315100053D000F8011CF9E700005B00000025642C00B2
S315100053E05D00000070B50023092501F5805106E027
S315100053F0C418A678964200D1A5705B1C5BB291F8D2
S31510005400DE459C42F4DC70BD70B50023092501F51C
S31510005410805106E0C418A678964200D1A5705B1C90
S315100054205BB291F8DE459C42F4DC70BD2DE9FC417F
S3151000543006460F464FF480684046FFF77FF905464B
S315100054400020019045B1287016A301AA41462846AE
S3151000545007F0D2FD00240EE00020BDE8FC81305795
S315100054600F2806D0009010A301AA4146284607F03F
S31510005470C3FD641C64B2BC42F1DB0198012804D957
S31510005480284410F8011C2C2907D008A301AA41466C
S31510005490284607F0B1FD2846DFE75D2100F8011C1C
S315100054A0F9E700005B00000025642C005D00000099
S315100054B010B5044610212046FFF7DDFC00202070B1
S315100054C060706073A073E073207310BD10B500F0A8
S315100054D0A5FD04461CB100F011FD024908602046E6
S315100054E010BD0000080100202DE9FF4FADF52D7D00
S315100054F00E461446BA98009022463146AD9803F0EF
S3151000550091FFBA980BF0C0FA024610007DD0BB4846
S3151000551049F6B01149F6B0150B58091D5B1C095810
S315100055202B5041F100012B1D1950617801290DD125
S3151000553049F6C81149F6CC1309581B58491C49F6A7
S31510005540C81543F100032950291D0B502178A1B12C
S3151000555049F6C01149F6C41309581B58491C49F697
S31510005560C01543F100032950291D0B5061780229FB
S3151000557012D003291FD069B33AE049F6B81149F69B
S31510005580BC1309581B58491C49F6B81543F10003BA
S315100055902950291D0B50E9E749F6D81149F6DC13B5
S315100055A009581B58491C49F6D81543F100032950D0
S315100055B0291D0B501CE049F6D01149F6D413095891
S315100055C01B58491C49F6D01543F100032950291DD3
S315100055D00B500DE049F6E01149F6E41309581B5833
S315100055E0491C49F6E01543F100032950291D0B50BB
S315100055F02178D9BB49F6F81149F6FC1309581B58FE
S31510005600D4F8CC50C6FB051300E0F3E049F6F815C4
S315100056102950291D0B50091D49F6042309581B58FA
S31510005620D4F8E850C6FB05134FF41A452950291D26
S315100056300B50091D49F60C2309581B58D4F8545120
S31510005640C6FB051349F608252950291D0B50091DBF
S3151000565049F610270D58091D0B58D4F8B0116D18BE
S3151000566043EBE17349F614213D500B50D4F8B011B9
S3151000567000290DDD49F6E81149F6EC1309581B58B7
S31510005680491C49F6E81543F100032950291D0B5012
S3151000569002F5805249F62023D2F8C815195000F5A4
S315100056A01040CA17C0F8242A5548A9AF00F10801BE
S315100056B02EC92EC703C8A891A7900FF248180FF24B
S315100056C0501A6078042802D2A9A951F820802078AF
S315100056D0022802D2A7A951F820A04FF4C07147A8FA
S315100056E0FFF7EBFB4FF4807B594607A8FFF7E5FB66
S315100056F04FF00009CDF81890CDF814906078012875
S315100057001FD146A306AA594607A807F075FC00251F
S3151000571004EB8507786800280ADD03F057FE7968E0
S31510005720CDE9001040A306AA594607A807F064FC65
S315100057306D1C322DECDB3EA306AA594607A807F0CE
S315100057405BFC6078022811D194F8EC00009039A324
S3151000575006AA594607A807F04FFCD4F8E8000090AF
S3151000576039A306AA594607A807F046FC607803280D
S3151000577008D1D4F85401009038A306AA594607A8B0
S3151000578007F03AFCD4F8CC00CDE900A8CDE90260C8
S315100057904FF4C07535A305AA294647A807F02CFC77
S315100057A0AD98D4F8CC304946006A0246C6FB0301D0
S315100057B0CDE9002902AA07AB0BC23AA3294647A88E
S315100057C007F01AFC47A940A00FF0D6FB2046BA995D
S315100057D005F094F804463CB121463BA00FF0CCFBF3
S315100057E02046FEF7DAFF02E038A00FF0C5FB40A016
S315100057F00FF0C2FB0DF5317DBDE8F08F7808002063
S3151000580018A00110556E6B6E6F776E52657300009F
S31510005810556E6B6E6F776E4F70656E002020494423
S315100058205665633A205B000025643C25643E2000E3
S315100058305D000000206E546F74616C46726565548D
S31510005840696D653A25640000206E546F74616C466C
S315100058507265654265743A2564000000206E426FD9
S315100058606E75734265743A2564000000206F70747B
S31510005870547970655374723A25732072657354792E
S3151000588070655374723A25732062657456616C752F
S31510005890653A2564206E4D61747269784265743A72
S315100058A025642000746F74616C73636F72653A259A
S315100058B06C6C64206578706563746174696F6E3A98
S315100058C0256C6C642025730025730A007B22657293
S315100058D072223A224F7574526573546F4A736F6E03
S315100058E06E42794964206661696C6564227D0A009E
S315100058F02D2D2D2D2D2D2D2D2D2D2D2D2D2D2D2DC2
S315100059002D0A0000014900F061B8000018A200201D
S3151000591070B5044600200BF0B7F80546204607F090
S3151000592035F8002D2BD0002C29DD154949F6F0103D
S3151000593049F6F41240585258401C49F6F01342F1F9
S3151000594000025850181D425049F6182049F61825DD
S315100059504358001D4258E0171B1942416B502B1D2E
S315100059605A5049F6A8125358121D1B195258424143
S3151000597049F6A810435001F51041C1F8AC2970BD85
S315100059807808002070B505460E46144620460BF0E2
S315100059907BF80146234632462846BDE8704003F0A0
S315100059A0FDBC0000044902780A7042784A70827879
S315100059B08A70C078C8707047D400002007F020B8ED
S315100059C00021017041708170C170704730B5D0E907
S315100059D00032D1E900545B196241C0E90032D0E9C6
S315100059E00252D1E90234EB186241C0E90232D0E921
S315100059F00432D1E904451B196A41C0E90432D0E9E1
S31510005A000652D1E90634EB186241C0E90632D0E9F4
S31510005A100832D1E908451B196A41C0E90832D0E9B4
S31510005A200C52D1E90C34EB186241C0E90C32D0E9C2
S31510005A300E32D1E90E451B196A41C0E90E32D0E982
S31510005A401052D1E91034EB186241C0E91032D0E996
S31510005A501832D1E918451B196A41C0E91832D0E944
S31510005A601A52D1E91A34EB186241C0E91A32D0E958
S31510005A701232D1E912451B196A41C0E91232D0E936
S31510005A801C32D1E91C451B196A41C0E91C32D0E908
S31510005A901442D1E91435E3186A41C0E91432D0E949
S31510005AA01E42D1E91E35E3186A41C0E91E32D0E91B
S31510005AB02032D1E920451B196A41C0E92032D0E9CC
S31510005AC00A32D1E90A451B196A41C0E90A32D0E9FE
S31510005AD01632D1E916411B194A41C0E9163230BDBA
S31510005AE08821FFF7EAB910B50446002C09D041F217
S31510005AF084512046FFF7E1F92046BDE8104005F035
S31510005B0026B810BD002808D000F5805000F5AF600B
S31510005B100021017181600160417170472DE9F04FDC
S31510005B2089B0684600F0BFF90024009401940294ED
S31510005B304FF00C088DF80C804FF0090B8DF80DB056
S31510005B404FF00F0AADF80EA005268DF810604FF035
S31510005B5003098DF811908DF812A0ADF814A0142534
S31510005B608DF816508DF818B00A278DF817700B207F
S31510005B708DF819008DF81A408DF81B406A4640F2D0
S31510005B80A4619FA004F03DFF00287CD0684600F079
S31510005B908AF901208DF800008DF801408DF8024039
S31510005BA08DF80340019402948DF80C808DF80DB099
S31510005BB0ADF80E508DF810608DF811900F218DF8FC
S31510005BC01210ADF814508DF816808DF818B08DF8A7
S31510005BD017704FF00B0A8DF819A08DF81A008DF872
S31510005BE01B006A4640F69F718AA004F00AFF00283F
S31510005BF049D0684600F057F902208DF800008DF85C
S31510005C0001408DF802408DF80340019402948DF8FE
S31510005C100C7008218DF80D10ADF80E508DF810602F
S31510005C208DF811900F228DF81220ADF8145006221F
S31510005C308DF816208DF8181009218DF819108DF889
S31510005C4017708DF81A008DF81B906A4640F69E71F3
S31510005C5075A004F0D6FE002815D0684600F023F98A
